{
  "contractName": "TicketMachine",
  "abi": [
    {
      "inputs": [],
      "name": "extra",
      "outputs": [],
      "stateMutability": "nonpayable",
      "type": "function"
    },
    {
      "inputs": [
        {
          "internalType": "uint256",
          "name": "_ticketid",
          "type": "uint256"
        }
      ],
      "name": "getSummary",
      "outputs": [
        {
          "internalType": "string",
          "name": "",
          "type": "string"
        }
      ],
      "stateMutability": "view",
      "type": "function",
      "constant": true
    },
    {
      "inputs": [
        {
          "internalType": "uint256",
          "name": "_ticketid",
          "type": "uint256"
        },
        {
          "internalType": "address",
          "name": "_maker",
          "type": "address"
        }
      ],
      "name": "buyTicket",
      "outputs": [],
      "stateMutability": "payable",
      "type": "function",
      "payable": true
    }
  ],
  "bytecode": "0x6080604052673782dace9d90000060015534801561001c57600080fd5b50612a198061002c6000396000f3fe6080604052600436106100345760003560e01c8063190024e01461003957806362a845ec14610050578063aee1446014610063575b600080fd5b34801561004557600080fd5b5061004e61009a565b005b61004e61005e3660046101c4565b6100e5565b34801561006f57600080fd5b5061008461007e3660046101ac565b50606090565b60405161009191906101fe565b60405180910390f35b6040516100a69061019f565b604051809103906000f0801580156100c2573d6000803e3d6000fd5b50600080546001600160a01b0319166001600160a01b0392909216919091179055565b60015434101561012f5760405162461bcd60e51b81526020600482015260116024820152704e6f7420656e6f7567682045746865722160781b604482015260640160405180910390fd5b6000546040516323b872dd60e01b81526001600160a01b03838116600483015233602483015260448201859052909116906323b872dd90606401600060405180830381600087803b15801561018357600080fd5b505af1158015610197573d6000803e3d6000fd5b505050505050565b6127928061025283390190565b6000602082840312156101bd578081fd5b5035919050565b600080604083850312156101d6578081fd5b8235915060208301356001600160a01b03811681146101f3578182fd5b809150509250929050565b6000602080835283518082850152825b8181101561022a5785810183015185820160400152820161020e565b8181111561023b5783604083870101525b50601f01601f191692909201604001939250505056fe60806040523480156200001157600080fd5b50604080518082018252600b81526a2a34b1b5b2ba20b236b4b760a91b602080830191825283518085019094526004845263544b5f4160e01b9084015281519192916200006191600091620000f0565b50805162000077906001906020840190620000f0565b505050620000946200008e6200009a60201b60201c565b6200009e565b620001d3565b3390565b600680546001600160a01b038381166001600160a01b0319831681179093556040519116919082907f8be0079c531659141344cd1fd0a4f28419497f9722a3daafe3b4186f6b6457e090600090a35050565b828054620000fe9062000196565b90600052602060002090601f0160209004810192826200012257600085556200016d565b82601f106200013d57805160ff19168380011785556200016d565b828001600101855582156200016d579182015b828111156200016d57825182559160200191906001019062000150565b506200017b9291506200017f565b5090565b5b808211156200017b576000815560010162000180565b600181811c90821680620001ab57607f821691505b60208210811415620001cd57634e487b7160e01b600052602260045260246000fd5b50919050565b6125af80620001e36000396000f3fe608060405234801561001057600080fd5b50600436106101cf5760003560e01c806374eabed411610104578063b88d4fde116100a2578063e2e46c3b11610071578063e2e46c3b1461040e578063e75722301461043a578063e985e9c51461045d578063f2fde38b1461049957600080fd5b8063b88d4fde146103af578063c87b56dd146103c2578063d4fc94b7146103d5578063dd8bdfa8146103e857600080fd5b80639d66a9cd116100de5780639d66a9cd14610355578063a22cb46514610376578063a78fb3b114610389578063b31410301461039c57600080fd5b806374eabed4146103125780638da5cb5b1461033c57806395d89b411461034d57600080fd5b806342842e0e116101715780636352211e1161014b5780636352211e146102c35780636b8ff574146102d657806370a08231146102e9578063715018a61461030a57600080fd5b806342842e0e1461028a578063507cdb371461029d57806351958a56146102b057600080fd5b8063095ea7b3116101ad578063095ea7b31461023c57806323b872dd1461025157806329795db7146102645780633b0e8f441461027757600080fd5b806301ffc9a7146101d457806306fdde03146101fc578063081812fc14610211575b600080fd5b6101e76101e2366004611eb7565b6104ac565b60405190151581526020015b60405180910390f35b6102046104fe565b6040516101f3919061216f565b61022461021f366004611f73565b610590565b6040516001600160a01b0390911681526020016101f3565b61024f61024a366004611e8e565b61062a565b005b61024f61025f366004611d03565b610740565b610204610272366004611fbd565b610771565b610204610285366004611f73565b6107d7565b61024f610298366004611d03565b6107ff565b61024f6102ab366004611f73565b61081a565b61024f6102be366004611e8e565b610855565b6102246102d1366004611f73565b610864565b6102046102e4366004611f73565b6108db565b6102fc6102f7366004611cb7565b610980565b6040519081526020016101f3565b61024f610a07565b610325610320366004611eef565b610a3d565b6040805192151583526020830191909152016101f3565b6006546001600160a01b0316610224565b610204610baa565b610368610363366004611f73565b610bb9565b6040516101f3929190612182565b61024f610384366004611db7565b610cfa565b61024f610397366004611fde565b610dbf565b6102046103aa366004611f8b565b610e19565b61024f6103bd366004611d3e565b610ea5565b6102046103d0366004611f73565b610edd565b6102fc6103e3366004611df1565b610fc5565b6101e76103f6366004611f73565b60009081526008602052604090206006015460ff1690565b61022461041c366004611f73565b6000908152600860205260409020600401546001600160a01b031690565b6102fc610448366004611f73565b60009081526008602052604090206005015490565b6101e761046b366004611cd1565b6001600160a01b03918216600090815260056020908152604080832093909416825291909152205460ff1690565b61024f6104a7366004611cb7565b611101565b60006001600160e01b031982166380ac58cd60e01b14806104dd57506001600160e01b03198216635b5e139f60e01b145b806104f857506301ffc9a760e01b6001600160e01b03198316145b92915050565b60606000805461050d90612463565b80601f016020809104026020016040519081016040528092919081815260200182805461053990612463565b80156105865780601f1061055b57610100808354040283529160200191610586565b820191906000526020600020905b81548152906001019060200180831161056957829003601f168201915b5050505050905090565b6000818152600260205260408120546001600160a01b031661060e5760405162461bcd60e51b815260206004820152602c60248201527f4552433732313a20617070726f76656420717565727920666f72206e6f6e657860448201526b34b9ba32b73a103a37b5b2b760a11b60648201526084015b60405180910390fd5b506000908152600460205260409020546001600160a01b031690565b600061063582610864565b9050806001600160a01b0316836001600160a01b031614156106a35760405162461bcd60e51b815260206004820152602160248201527f4552433732313a20617070726f76616c20746f2063757272656e74206f776e656044820152603960f91b6064820152608401610605565b336001600160a01b03821614806106bf57506106bf813361046b565b6107315760405162461bcd60e51b815260206004820152603860248201527f4552433732313a20617070726f76652063616c6c6572206973206e6f74206f7760448201527f6e6572206e6f7220617070726f76656420666f7220616c6c00000000000000006064820152608401610605565b61073b838361119c565b505050565b61074a338261120a565b6107665760405162461bcd60e51b81526004016106059061222e565b61073b838383611301565b6006546060906001600160a01b0316331461079e5760405162461bcd60e51b8152600401610605906121f9565b60008381526008602090815260408083206005810186905581516060810190925260268083529093926125269083013995945050505050565b600081815260086020526040812060058101546060926107f6826114a1565b95945050505050565b61073b83838360405180602001604052806000815250610ea5565b6006546001600160a01b0316331461083157600080fd5b6000908152600860205260409020426007820155600601805460ff19166001179055565b610860338383610740565b5050565b6000818152600260205260408120546001600160a01b0316806104f85760405162461bcd60e51b815260206004820152602960248201527f4552433732313a206f776e657220717565727920666f72206e6f6e657869737460448201526832b73a103a37b5b2b760b91b6064820152608401610605565b600081815260086020526040902080546060919081906108fa90612463565b80601f016020809104026020016040519081016040528092919081815260200182805461092690612463565b80156109735780601f1061094857610100808354040283529160200191610973565b820191906000526020600020905b81548152906001019060200180831161095657829003601f168201915b5050505050915050919050565b60006001600160a01b0382166109eb5760405162461bcd60e51b815260206004820152602a60248201527f4552433732313a2062616c616e636520717565727920666f7220746865207a65604482015269726f206164647265737360b01b6064820152608401610605565b506001600160a01b031660009081526003602052604090205490565b6006546001600160a01b03163314610a315760405162461bcd60e51b8152600401610605906121f9565b610a3b60006115e6565b565b60008060005b6007548111610b995760008181526008602090815260408083209051909291610a6e918a910161204c565b60408051601f1981840301815290829052805160209182012091610a9491859101612097565b60405160208183030381529060405280519060200120149050600087604051602001610ac0919061204c565b6040516020818303038152906040528051906020012083600101604051602001610aea9190612097565b60405160208183030381529060405280519060200120149050600087604051602001610b16919061204c565b6040516020818303038152906040528051906020012084600201604051602001610b409190612097565b60405160208183030381529060405280519060200120149050828015610b635750815b8015610b6c5750805b15610b8257600185965096505050505050610ba2565b505050508080610b919061249e565b915050610a43565b50600080915091505b935093915050565b60606001805461050d90612463565b60008181526008602052604090206001810180546060928392909160028301908290610be490612463565b80601f0160208091040260200160405190810160405280929190818152602001828054610c1090612463565b8015610c5d5780601f10610c3257610100808354040283529160200191610c5d565b820191906000526020600020905b815481529060010190602001808311610c4057829003601f168201915b50505050509150808054610c7090612463565b80601f0160208091040260200160405190810160405280929190818152602001828054610c9c90612463565b8015610ce95780601f10610cbe57610100808354040283529160200191610ce9565b820191906000526020600020905b815481529060010190602001808311610ccc57829003601f168201915b505050505090509250925050915091565b6001600160a01b038216331415610d535760405162461bcd60e51b815260206004820152601960248201527f4552433732313a20617070726f766520746f2063616c6c6572000000000000006044820152606401610605565b3360008181526005602090815260408083206001600160a01b03871680855290835292819020805460ff191686151590811790915590519081529192917f17307eab39ab6107e8899845ad3d59bd9653f200f220920489ca2b5937696c31910160405180910390a35050565b6006546001600160a01b03163314610de95760405162461bcd60e51b8152600401610605906121f9565b600086815260086020526040812090610e0b9085908790899087908790611638565b600390910155505050505050565b6006546060906001600160a01b03163314610e465760405162461bcd60e51b8152600401610605906121f9565b600084815260086020908152604090912084519091610e69918391870190611b6d565b508251610e7f9060018301906020860190611b6d565b5060006040518060600160405280602e815260200161254c602e91399695505050505050565b610eaf338361120a565b610ecb5760405162461bcd60e51b81526004016106059061222e565b610ed784848484611694565b50505050565b6000818152600260205260409020546060906001600160a01b0316610f5c5760405162461bcd60e51b815260206004820152602f60248201527f4552433732314d657461646174613a2055524920717565727920666f72206e6f60448201526e3732bc34b9ba32b73a103a37b5b2b760891b6064820152608401610605565b6000610f7360408051602081019091526000815290565b90506000815111610f935760405180602001604052806000815250610fbe565b80610f9d846116c7565b604051602001610fae929190612068565b6040516020818303038152906040525b9392505050565b6006546000906001600160a01b03163314610ff25760405162461bcd60e51b8152600401610605906121f9565b6000610fff868686610a3d565b50905080156110505760405162461bcd60e51b815260206004820152601c60248201527f54686973207469636b65742068617320616c7265616479206d616465000000006044820152606401610605565b6110628761105d60075490565b6117e1565b600061106d60075490565b6000818152600860209081526040909120885192935091611096916001840191908a0190611b6d565b5087516110a990829060208b0190611b6d565b506004810180546001600160a01b031916331790556005810185905585516110da9060028301906020890190611b6d565b5060068101805460ff191690556110f5600780546001019055565b50979650505050505050565b6006546001600160a01b0316331461112b5760405162461bcd60e51b8152600401610605906121f9565b6001600160a01b0381166111905760405162461bcd60e51b815260206004820152602660248201527f4f776e61626c653a206e6577206f776e657220697320746865207a65726f206160448201526564647265737360d01b6064820152608401610605565b611199816115e6565b50565b600081815260046020526040902080546001600160a01b0319166001600160a01b03841690811790915581906111d182610864565b6001600160a01b03167f8c5be1e5ebec7d5bd14f71427d1e84f3dd0314c0f7b2291e5b200ac8c7c3b92560405160405180910390a45050565b6000818152600260205260408120546001600160a01b03166112835760405162461bcd60e51b815260206004820152602c60248201527f4552433732313a206f70657261746f7220717565727920666f72206e6f6e657860448201526b34b9ba32b73a103a37b5b2b760a11b6064820152608401610605565b600061128e83610864565b9050806001600160a01b0316846001600160a01b031614806112c95750836001600160a01b03166112be84610590565b6001600160a01b0316145b806112f957506001600160a01b0380821660009081526005602090815260408083209388168352929052205460ff165b949350505050565b826001600160a01b031661131482610864565b6001600160a01b03161461137c5760405162461bcd60e51b815260206004820152602960248201527f4552433732313a207472616e73666572206f6620746f6b656e2074686174206960448201526839903737ba1037bbb760b91b6064820152608401610605565b6001600160a01b0382166113de5760405162461bcd60e51b8152602060048201526024808201527f4552433732313a207472616e7366657220746f20746865207a65726f206164646044820152637265737360e01b6064820152608401610605565b6113e960008261119c565b6001600160a01b0383166000908152600360205260408120805460019290611412908490612420565b90915550506001600160a01b03821660009081526003602052604081208054600192906114409084906122c0565b909155505060008181526002602052604080822080546001600160a01b0319166001600160a01b0386811691821790925591518493918716917fddf252ad1be2c89b69c2b068fc378daa952ba7f163c4a11628f55a4df523b3ef91a4505050565b6060816114c55750506040805180820190915260018152600360fc1b602082015290565b8160005b81156114ef57806114d98161249e565b91506114e89050600a8361232b565b91506114c9565b60008167ffffffffffffffff81111561151857634e487b7160e01b600052604160045260246000fd5b6040519080825280601f01601f191660200182016040528015611542576020820181803683370190505b509050815b85156115dd57611558600182612420565b90506000611567600a8861232b565b61157290600a6123c2565b61157c9088612420565b6115879060306122d8565b905060008160f81b9050808484815181106115b257634e487b7160e01b600052603260045260246000fd5b60200101906001600160f81b031916908160001a9053506115d4600a8961232b565b97505050611547565b50949350505050565b600680546001600160a01b038381166001600160a01b0319831681179093556040519116919082907f8be0079c531659141344cd1fd0a4f28419497f9722a3daafe3b4186f6b6457e090600090a35050565b600081611646603c856123c2565b611652610e10876123c2565b620151806116618b8b8b611923565b61166b91906123c2565b61167591906122c0565b61167f91906122c0565b61168991906122c0565b979650505050505050565b61169f848484611301565b6116ab84848484611a60565b610ed75760405162461bcd60e51b8152600401610605906121a7565b6060816116eb5750506040805180820190915260018152600360fc1b602082015290565b8160005b811561171557806116ff8161249e565b915061170e9050600a8361232b565b91506116ef565b60008167ffffffffffffffff81111561173e57634e487b7160e01b600052604160045260246000fd5b6040519080825280601f01601f191660200182016040528015611768576020820181803683370190505b5090505b84156112f95761177d600183612420565b915061178a600a866124b9565b6117959060306122c0565b60f81b8183815181106117b857634e487b7160e01b600052603260045260246000fd5b60200101906001600160f81b031916908160001a9053506117da600a8661232b565b945061176c565b6001600160a01b0382166118375760405162461bcd60e51b815260206004820181905260248201527f4552433732313a206d696e7420746f20746865207a65726f20616464726573736044820152606401610605565b6000818152600260205260409020546001600160a01b03161561189c5760405162461bcd60e51b815260206004820152601c60248201527f4552433732313a20746f6b656e20616c7265616479206d696e746564000000006044820152606401610605565b6001600160a01b03821660009081526003602052604081208054600192906118c59084906122c0565b909155505060008181526002602052604080822080546001600160a01b0319166001600160a01b03861690811790915590518392907fddf252ad1be2c89b69c2b068fc378daa952ba7f163c4a11628f55a4df523b3ef908290a45050565b60006107b284101561193457600080fd5b838383600062253d8c60046064600c61194e600e886123e1565b61195891906122fd565b6119648861132461227f565b61196e919061227f565b61197891906122fd565b61198390600361233f565b61198d91906122fd565b600c8061199b600e886123e1565b6119a591906122fd565b6119b090600c61233f565b6119bb6002886123e1565b6119c591906123e1565b6119d19061016f61233f565b6119db91906122fd565b6004600c6119ea600e896123e1565b6119f491906122fd565b611a00896112c061227f565b611a0a919061227f565b611a16906105b561233f565b611a2091906122fd565b611a2c617d4b876123e1565b611a36919061227f565b611a40919061227f565b611a4a91906123e1565b611a5491906123e1565b98975050505050505050565b60006001600160a01b0384163b15611b6257604051630a85bd0160e11b81526001600160a01b0385169063150b7a0290611aa4903390899088908890600401612132565b602060405180830381600087803b158015611abe57600080fd5b505af1925050508015611aee575060408051601f3d908101601f19168201909252611aeb91810190611ed3565b60015b611b48573d808015611b1c576040519150601f19603f3d011682016040523d82523d6000602084013e611b21565b606091505b508051611b405760405162461bcd60e51b8152600401610605906121a7565b805181602001fd5b6001600160e01b031916630a85bd0160e11b1490506112f9565b506001949350505050565b828054611b7990612463565b90600052602060002090601f016020900481019282611b9b5760008555611be1565b82601f10611bb457805160ff1916838001178555611be1565b82800160010185558215611be1579182015b82811115611be1578251825591602001919060010190611bc6565b50611bed929150611bf1565b5090565b5b80821115611bed5760008155600101611bf2565b600067ffffffffffffffff80841115611c2157611c216124f9565b604051601f8501601f19908116603f01168101908282118183101715611c4957611c496124f9565b81604052809350858152868686011115611c6257600080fd5b858560208301376000602087830101525050509392505050565b80356001600160a01b0381168114611c9357600080fd5b919050565b600082601f830112611ca8578081fd5b610fbe83833560208501611c06565b600060208284031215611cc8578081fd5b610fbe82611c7c565b60008060408385031215611ce3578081fd5b611cec83611c7c565b9150611cfa60208401611c7c565b90509250929050565b600080600060608486031215611d17578081fd5b611d2084611c7c565b9250611d2e60208501611c7c565b9150604084013590509250925092565b60008060008060808587031215611d53578081fd5b611d5c85611c7c565b9350611d6a60208601611c7c565b925060408501359150606085013567ffffffffffffffff811115611d8c578182fd5b8501601f81018713611d9c578182fd5b611dab87823560208401611c06565b91505092959194509250565b60008060408385031215611dc9578182fd5b611dd283611c7c565b915060208301358015158114611de6578182fd5b809150509250929050565b600080600080600060a08688031215611e08578081fd5b611e1186611c7c565b9450602086013567ffffffffffffffff80821115611e2d578283fd5b611e3989838a01611c98565b95506040880135915080821115611e4e578283fd5b611e5a89838a01611c98565b94506060880135915080821115611e6f578283fd5b50611e7c88828901611c98565b95989497509295608001359392505050565b60008060408385031215611ea0578182fd5b611ea983611c7c565b946020939093013593505050565b600060208284031215611ec8578081fd5b8135610fbe8161250f565b600060208284031215611ee4578081fd5b8151610fbe8161250f565b600080600060608486031215611f03578283fd5b833567ffffffffffffffff80821115611f1a578485fd5b611f2687838801611c98565b94506020860135915080821115611f3b578384fd5b611f4787838801611c98565b93506040860135915080821115611f5c578283fd5b50611f6986828701611c98565b9150509250925092565b600060208284031215611f84578081fd5b5035919050565b600080600060608486031215611f9f578283fd5b83359250602084013567ffffffffffffffff80821115611f3b578384fd5b60008060408385031215611fcf578182fd5b50508035926020909101359150565b60008060008060008060c08789031215611ff6578384fd5b505084359660208601359650604086013595606081013595506080810135945060a0013592509050565b60008151808452612038816020860160208601612437565b601f01601f19169290920160200192915050565b6000825161205e818460208701612437565b9190910192915050565b6000835161207a818460208801612437565b83519083019061208e818360208801612437565b01949350505050565b600080835482600182811c9150808316806120b357607f831692505b60208084108214156120d357634e487b7160e01b87526022600452602487fd5b8180156120e757600181146120f857612124565b60ff19861689528489019650612124565b60008a815260209020885b8681101561211c5781548b820152908501908301612103565b505084890196505b509498975050505050505050565b6001600160a01b038581168252841660208201526040810183905260806060820181905260009061216590830184612020565b9695505050505050565b602081526000610fbe6020830184612020565b6040815260006121956040830185612020565b82810360208401526107f68185612020565b60208082526032908201527f4552433732313a207472616e7366657220746f206e6f6e20455243373231526560408201527131b2b4bb32b91034b6b83632b6b2b73a32b960711b606082015260800190565b6020808252818101527f4f776e61626c653a2063616c6c6572206973206e6f7420746865206f776e6572604082015260600190565b60208082526031908201527f4552433732313a207472616e736665722063616c6c6572206973206e6f74206f6040820152701ddb995c881b9bdc88185c1c1c9bdd9959607a1b606082015260800190565b600080821280156001600160ff1b03849003851316156122a1576122a16124cd565b600160ff1b83900384128116156122ba576122ba6124cd565b50500190565b600082198211156122d3576122d36124cd565b500190565b600060ff821660ff84168060ff038211156122f5576122f56124cd565b019392505050565b60008261230c5761230c6124e3565b600160ff1b821460001984141615612326576123266124cd565b500590565b60008261233a5761233a6124e3565b500490565b60006001600160ff1b0381841382841380821686840486111615612365576123656124cd565b600160ff1b84871282811687830589121615612383576123836124cd565b85871292508782058712848416161561239e5761239e6124cd565b878505871281841616156123b4576123b46124cd565b505050929093029392505050565b60008160001904831182151516156123dc576123dc6124cd565b500290565b60008083128015600160ff1b8501841216156123ff576123ff6124cd565b6001600160ff1b038401831381161561241a5761241a6124cd565b50500390565b600082821015612432576124326124cd565b500390565b60005b8381101561245257818101518382015260200161243a565b83811115610ed75750506000910152565b600181811c9082168061247757607f821691505b6020821081141561249857634e487b7160e01b600052602260045260246000fd5b50919050565b60006000198214156124b2576124b26124cd565b5060010190565b6000826124c8576124c86124e3565b500690565b634e487b7160e01b600052601160045260246000fd5b634e487b7160e01b600052601260045260246000fd5b634e487b7160e01b600052604160045260246000fd5b6001600160e01b03198116811461119957600080fdfe7570646174652073756363657373200a507269636520686173206265656e20557064617465647570646174652073756363657373200a4e616d6520262044657461696c20686173206265656e2055706461746564a2646970667358221220f1a3f0aec2ae3dd3568452fdaa8db25dc2f0b2c8153e95166558cb95d664e76264736f6c63430008040033a2646970667358221220d9ddf75da4ba1ac7589aae6535db0106af57f4a9cc0256c762d330aae4891a1a64736f6c63430008040033",
  "immutableReferences": {},
  "source": "// SPDX-License-Identifier: MIT\r\npragma solidity ^0.8.2;\r\n\r\nimport \"./TokenGen.sol\";\r\n\r\ncontract TicketMachine{\r\n     TicketCtrl token;\r\n     //address maker = accounts[0];\r\n     //  \r\n     uint tkprice = 4 ether;\r\n\r\n     function extra() public {\r\n        token = new TicketCtrl();\r\n     }\r\n\r\n    function getSummary(uint _ticketid) public view returns(string memory) {\r\n        //return tkprice = token.getPrice(_ticketid);\r\n    }\r\n\r\n    function buyTicket(uint _ticketid, address _maker) public payable {\r\n        // Ether  User   Ticket\r\n        if (msg.value < tkprice) {\r\n            revert(\"Not enough Ether!\");\r\n        }\r\n        else {\r\n            token.transferFrom(_maker, msg.sender, _ticketid);\r\n        }\r\n    }\r\n}\r\n",
  "sourcePath": "/Users/kato/Blockchain_Project/ticket_seller/contracts/TicketMachine.sol",
  "compiler": {
    "name": "solc",
    "version": "0.8.4+commit.c7e474f2.Emscripten.clang"
  },
  "schemaVersion": "3.4.3",
  "updatedAt": "2021-11-10T07:00:01.999Z",
  "networkType": "ethereum",
  "devdoc": {
    "kind": "dev",
    "methods": {},
    "version": 1
  },
  "userdoc": {
    "kind": "user",
    "methods": {},
    "version": 1
  }
}